{
  "contractName": "DaliSale",
  "abi": [
    {
      "inputs": [
        {
          "internalType": "address",
          "name": "token",
          "type": "address"
        }
      ],
      "stateMutability": "nonpayable",
      "type": "constructor"
    },
    {
      "anonymous": false,
      "inputs": [
        {
          "indexed": false,
          "internalType": "uint256",
          "name": "amount",
          "type": "uint256"
        }
      ],
      "name": "Deposit",
      "type": "event"
    },
    {
      "anonymous": false,
      "inputs": [
        {
          "indexed": true,
          "internalType": "address",
          "name": "previousOwner",
          "type": "address"
        },
        {
          "indexed": true,
          "internalType": "address",
          "name": "newOwner",
          "type": "address"
        }
      ],
      "name": "OwnershipTransferred",
      "type": "event"
    },
    {
      "anonymous": false,
      "inputs": [
        {
          "indexed": true,
          "internalType": "address",
          "name": "buyer",
          "type": "address"
        },
        {
          "indexed": false,
          "internalType": "uint256",
          "name": "amount",
          "type": "uint256"
        }
      ],
      "name": "Purchase",
      "type": "event"
    },
    {
      "anonymous": false,
      "inputs": [
        {
          "indexed": false,
          "internalType": "address",
          "name": "recipient",
          "type": "address"
        },
        {
          "indexed": false,
          "internalType": "uint256",
          "name": "amount",
          "type": "uint256"
        }
      ],
      "name": "Withdraw",
      "type": "event"
    },
    {
      "inputs": [],
      "name": "owner",
      "outputs": [
        {
          "internalType": "address",
          "name": "",
          "type": "address"
        }
      ],
      "stateMutability": "view",
      "type": "function"
    },
    {
      "inputs": [],
      "name": "renounceOwnership",
      "outputs": [],
      "stateMutability": "nonpayable",
      "type": "function"
    },
    {
      "inputs": [
        {
          "internalType": "address",
          "name": "newOwner",
          "type": "address"
        }
      ],
      "name": "transferOwnership",
      "outputs": [],
      "stateMutability": "nonpayable",
      "type": "function"
    },
    {
      "inputs": [],
      "name": "buyDali",
      "outputs": [],
      "stateMutability": "payable",
      "type": "function"
    },
    {
      "inputs": [
        {
          "internalType": "address payable",
          "name": "recipient",
          "type": "address"
        },
        {
          "internalType": "uint256",
          "name": "value",
          "type": "uint256"
        }
      ],
      "name": "withdrawToBuyNFT",
      "outputs": [],
      "stateMutability": "nonpayable",
      "type": "function"
    },
    {
      "inputs": [],
      "name": "depositProfit",
      "outputs": [],
      "stateMutability": "payable",
      "type": "function"
    }
  ],
  "bytecode": "0x608060405260646002556203d09060035534801561001c57600080fd5b50604051610ea9380380610ea9833981810160405281019061003e9190610182565b61005a61004f6100a160201b60201c565b6100a960201b60201c565b80600160006101000a81548173ffffffffffffffffffffffffffffffffffffffff021916908373ffffffffffffffffffffffffffffffffffffffff160217905550506101f4565b600033905090565b60008060009054906101000a900473ffffffffffffffffffffffffffffffffffffffff169050816000806101000a81548173ffffffffffffffffffffffffffffffffffffffff021916908373ffffffffffffffffffffffffffffffffffffffff1602179055508173ffffffffffffffffffffffffffffffffffffffff168173ffffffffffffffffffffffffffffffffffffffff167f8be0079c531659141344cd1fd0a4f28419497f9722a3daafe3b4186f6b6457e060405160405180910390a35050565b60008151905061017c816101dd565b92915050565b60006020828403121561019457600080fd5b60006101a28482850161016d565b91505092915050565b60006101b6826101bd565b9050919050565b600073ffffffffffffffffffffffffffffffffffffffff82169050919050565b6101e6816101ab565b81146101f157600080fd5b50565b610ca6806102036000396000f3fe6080604052600436106100555760003560e01c80632f6a562f1461005a578063715018a61461008357806371d60d8f1461009a5780638da5cb5b146100a4578063d51dfe44146100cf578063f2fde38b146100d9575b600080fd5b34801561006657600080fd5b50610081600480360381019061007c91906107ca565b610102565b005b34801561008f57600080fd5b50610098610245565b005b6100a26102cd565b005b3480156100b057600080fd5b506100b9610390565b6040516100c69190610982565b60405180910390f35b6100d76103b9565b005b3480156100e557600080fd5b5061010060048036038101906100fb91906107a1565b61051c565b005b61010a610614565b73ffffffffffffffffffffffffffffffffffffffff16610128610390565b73ffffffffffffffffffffffffffffffffffffffff161461017e576040517f08c379a000000000000000000000000000000000000000000000000000000000815260040161017590610a2f565b60405180910390fd5b804710156101c1576040517f08c379a00000000000000000000000000000000000000000000000000000000081526004016101b890610a4f565b60405180910390fd5b8173ffffffffffffffffffffffffffffffffffffffff166108fc829081150290604051600060405180830381858888f19350505050158015610207573d6000803e3d6000fd5b507f884edad9ce6fa2440d8a54cc123490eb96d2768479d49ff9c7366125a9424364828260405161023992919061099d565b60405180910390a15050565b61024d610614565b73ffffffffffffffffffffffffffffffffffffffff1661026b610390565b73ffffffffffffffffffffffffffffffffffffffff16146102c1576040517f08c379a00000000000000000000000000000000000000000000000000000000081526004016102b890610a2f565b60405180910390fd5b6102cb600061061c565b565b6102d5610614565b73ffffffffffffffffffffffffffffffffffffffff166102f3610390565b73ffffffffffffffffffffffffffffffffffffffff1614610349576040517f08c379a000000000000000000000000000000000000000000000000000000000815260040161034090610a2f565b60405180910390fd5b7f4d6ce1e535dbade1c23defba91e23b8f791ce5edc0cc320257a2b364e4e38426346040516103789190610a6f565b60405180910390a16103886106e0565b600281905550565b60008060009054906101000a900473ffffffffffffffffffffffffffffffffffffffff16905090565b600034905060006103d56002548361072190919063ffffffff16565b90506000811161041a576040517f08c379a0000000000000000000000000000000000000000000000000000000008152600401610411906109ef565b60405180910390fd5b600160009054906101000a900473ffffffffffffffffffffffffffffffffffffffff1673ffffffffffffffffffffffffffffffffffffffff1663a9059cbb33836040518363ffffffff1660e01b81526004016104779291906109c6565b602060405180830381600087803b15801561049157600080fd5b505af11580156104a5573d6000803e3d6000fd5b505050506040513d601f19601f820116820180604052508101906104c99190610806565b503373ffffffffffffffffffffffffffffffffffffffff167f2499a5330ab0979cc612135e7883ebc3cd5c9f7a8508f042540c34723348f632826040516105109190610a6f565b60405180910390a25050565b610524610614565b73ffffffffffffffffffffffffffffffffffffffff16610542610390565b73ffffffffffffffffffffffffffffffffffffffff1614610598576040517f08c379a000000000000000000000000000000000000000000000000000000000815260040161058f90610a2f565b60405180910390fd5b600073ffffffffffffffffffffffffffffffffffffffff168173ffffffffffffffffffffffffffffffffffffffff161415610608576040517f08c379a00000000000000000000000000000000000000000000000000000000081526004016105ff90610a0f565b60405180910390fd5b6106118161061c565b50565b600033905090565b60008060009054906101000a900473ffffffffffffffffffffffffffffffffffffffff169050816000806101000a81548173ffffffffffffffffffffffffffffffffffffffff021916908373ffffffffffffffffffffffffffffffffffffffff1602179055508173ffffffffffffffffffffffffffffffffffffffff168173ffffffffffffffffffffffffffffffffffffffff167f8be0079c531659141344cd1fd0a4f28419497f9722a3daafe3b4186f6b6457e060405160405180910390a35050565b6000804790506000670de0b6b3a76400008210156107015760649050610719565b6107166003548361073790919063ffffffff16565b90505b809250505090565b6000818361072f9190610acc565b905092915050565b600081836107459190610a9b565b905092915050565b60008135905061075c81610c14565b92915050565b60008135905061077181610c2b565b92915050565b60008151905061078681610c42565b92915050565b60008135905061079b81610c59565b92915050565b6000602082840312156107b357600080fd5b60006107c18482850161074d565b91505092915050565b600080604083850312156107dd57600080fd5b60006107eb85828601610762565b92505060206107fc8582860161078c565b9150509250929050565b60006020828403121561081857600080fd5b600061082684828501610777565b91505092915050565b61083881610b80565b82525050565b61084781610b26565b82525050565b600061085a601783610a8a565b91507f696e73756666696369656e742076616c75652073656e740000000000000000006000830152602082019050919050565b600061089a602683610a8a565b91507f4f776e61626c653a206e6577206f776e657220697320746865207a65726f206160008301527f64647265737300000000000000000000000000000000000000000000000000006020830152604082019050919050565b6000610900602083610a8a565b91507f4f776e61626c653a2063616c6c6572206973206e6f7420746865206f776e65726000830152602082019050919050565b6000610940601283610a8a565b91507f696e73756666696369656e742066756e647300000000000000000000000000006000830152602082019050919050565b61097c81610b76565b82525050565b6000602082019050610997600083018461083e565b92915050565b60006040820190506109b2600083018561082f565b6109bf6020830184610973565b9392505050565b60006040820190506109db600083018561083e565b6109e86020830184610973565b9392505050565b60006020820190508181036000830152610a088161084d565b9050919050565b60006020820190508181036000830152610a288161088d565b9050919050565b60006020820190508181036000830152610a48816108f3565b9050919050565b60006020820190508181036000830152610a6881610933565b9050919050565b6000602082019050610a846000830184610973565b92915050565b600082825260208201905092915050565b6000610aa682610b76565b9150610ab183610b76565b925082610ac157610ac0610be5565b5b828204905092915050565b6000610ad782610b76565b9150610ae283610b76565b9250817fffffffffffffffffffffffffffffffffffffffffffffffffffffffffffffffff0483118215151615610b1b57610b1a610bb6565b5b828202905092915050565b6000610b3182610b56565b9050919050565b6000610b4382610b56565b9050919050565b60008115159050919050565b600073ffffffffffffffffffffffffffffffffffffffff82169050919050565b6000819050919050565b6000610b8b82610b92565b9050919050565b6000610b9d82610ba4565b9050919050565b6000610baf82610b56565b9050919050565b7f4e487b7100000000000000000000000000000000000000000000000000000000600052601160045260246000fd5b7f4e487b7100000000000000000000000000000000000000000000000000000000600052601260045260246000fd5b610c1d81610b26565b8114610c2857600080fd5b50565b610c3481610b38565b8114610c3f57600080fd5b50565b610c4b81610b4a565b8114610c5657600080fd5b50565b610c6281610b76565b8114610c6d57600080fd5b5056fea2646970667358221220d2f3719a0cfc69ffa9de536ee05febceb2c815d26b941bb7fcfc6d14075ca85b64736f6c63430008000033",
  "immutableReferences": {},
  "source": "// SPDX-License-Identifier: MIT\npragma solidity >=0.4.22 <0.9.0;\nimport '@openzeppelin/contracts/token/ERC20/IERC20.sol';\nimport '@openzeppelin/contracts/utils/math/SafeMath.sol';\nimport '@openzeppelin/contracts/access/Ownable.sol';\n\ncontract DaliSale is Ownable{\n  using SafeMath for uint256;\n  IERC20 DALI;\n  uint256 price = 100; // $1 = 100 penny\n  uint256 ethPrice = 250000; // 1 eth = 250000 pennies\n  constructor(address token) {\n    DALI = IERC20(token);\n  }\n  function buyDali() payable public {\n    uint256 eths_ = msg.value;\n  //  uint256 daliPrice_ = calcPrice(); // pass time if price recalculation is time specific\n    uint256 daliAmount_ = eths_.mul(price); // eths_.div(price);\n    require(daliAmount_ > 0, \"insufficient value sent\"); \n\n    DALI.transfer(msg.sender, daliAmount_);\n    emit Purchase(msg.sender, daliAmount_);\n  }\n\n  function calcPrice() private view returns(uint256){\n    uint256 totalValue_ = address(this).balance;\n    uint256 PriceInCents_;\n    if(totalValue_ < 1 ether){\n      PriceInCents_ = 100; // $1\n    } else{\n      PriceInCents_ = totalValue_.div(ethPrice);\n    }\n     return PriceInCents_;\n  }\nfunction withdrawToBuyNFT(address payable recipient, uint256 value) public onlyOwner {\n  require(address(this).balance >= value,\"insufficient funds\");\n  recipient.transfer(value);\n  emit Withdraw(recipient, value);\n}\nfunction depositProfit() public payable onlyOwner {\n  emit Deposit(msg.value);\n  // recalculation upon each deposit\n  price = calcPrice();\n}\n\n\n  event Purchase(address indexed buyer, uint256 amount);\n  event Withdraw(address recipient, uint256 amount);\n  event Deposit(uint256 amount);\n}\n",
  "sourcePath": "/home/malik/work/dali_token_crowdsale/contracts/DaliSale.sol",
  "compiler": {
    "name": "solc",
    "version": "0.8.0+commit.c7dfd78e.Emscripten.clang"
  },
  "schemaVersion": "3.4.1",
  "updatedAt": "2021-07-13T22:21:49.373Z",
  "devdoc": {
    "kind": "dev",
    "methods": {
      "owner()": {
        "details": "Returns the address of the current owner."
      },
      "renounceOwnership()": {
        "details": "Leaves the contract without owner. It will not be possible to call `onlyOwner` functions anymore. Can only be called by the current owner. NOTE: Renouncing ownership will leave the contract without an owner, thereby removing any functionality that is only available to the owner."
      },
      "transferOwnership(address)": {
        "details": "Transfers ownership of the contract to a new account (`newOwner`). Can only be called by the current owner."
      }
    },
    "version": 1
  },
  "userdoc": {
    "kind": "user",
    "methods": {},
    "version": 1
  }
}